:1000000012C02CC02BC02AC029C028C027C026C0BF
:1000100023C1A7C123C022C021C020C01FC01EC051
:100020001DC01CC01BC011241FBECFE5D4E0DEBF25
:10003000CDBF10E0A0E6B0E0ECEEF3E002C005902A
:100040000D92AA3CB107D9F710E0AAECB0E001C0CC
:100050001D92A03DB107E1F738D0C6C1D1CFFC0158
:1000600004C05D9BFECF31968CB980818823C9F78F
:10007000089560E177E2A4D1382F492F64E670E05B
:100080009FD1262F5D9BFECF822F6AE08DD1805DB0
:100090008CB95D9BFECF822F6AE086D1905D9CB9C2
:1000A000832F942F64E670E08BD1282F5D9BFECFC9
:1000B000822F6AE079D1805D8CB95D9BFECF822F63
:1000C0006AE072D1905D9CB908956F927F928F9291
:1000D0009F92AF92BF92CF92DF92EF92FF920F93D7
:1000E0001F93CF93DF93E1E0EE2EF12C71E1672EA9
:1000F0006EE2862E50E8752E43E3A42E38E1932E4F
:1001000026E8B22EC8ECD0E094E0C92E00E216E852
:1001100085E0D82E1092CE001092CF00F092CB0046
:10012000E092CA001092CD001092CC00F89464BA0C
:1001300085BA71BA12BA10BCA9B81BB89AB8B0BCCB
:1001400080E197E2FE013197F1F70197D9F780E658
:1001500090E085DFCEBC89B7846089BF1DBD0CBD32
:10016000D3BE89B7816089BF8CE382BF20E030E0D5
:100170000AC0FE013197F1F70197D9F72E5F3F4F83
:100180002630310519F080E197E2F3CF88E690E060
:1001900066DF82E890E063DF5D9BFECF8AE18CB989
:1001A0008EE890E05CDF78948091CE0082FF0FC0F3
:1001B00081E990E054DF8091CE0090E05ADF809199
:1001C000CF0090E056DF8EE890E049DFA3CF89E9C9
:1001D00090E045DF8091CA009091CB004ADF81EA30
:1001E00090E03DDF84EA90E03ADF8091CF0090E03C
:1001F00040DF81EA90E033DF8DEA90E030DF8091EC
:10020000CE0090E036DF8EE890E029DF8091CC00D0
:100210009091CD00019719F486EB90E020DF20E06B
:1002200030E00AC0FE013197F1F70197D9F72E5F50
:100230003F4F2A30310519F080E197E2F3CF8091EA
:10024000CA009091CB00C39708F4AECF8091CE0046
:10025000882309F0A9CF5ECF1F920F920FB60F929D
:1002600011242F933F938F939F9380E296E89DBD37
:100270008CBD8091CE0082FF0AC08091CE008B7F22
:100280008093CE008091CF0088608093CF008091D2
:10029000CE0080FF0AC08091CE008E7F8093CE007A
:1002A0008091CF0084608093CF008091CE0081FF49
:1002B0000AC08091CE008D7F8093CE008091CF00C8
:1002C00082608093CF008091CF0083FF03C01092A3
:1002D000CF00A8988091CF0082FF1BC0A89A21E090
:1002E00030E03093CD002093CC008091CA009091F3
:1002F000CB008536910521F43093CB002093CA00C2
:100300008091CA009091CB0001969093CB0080938E
:10031000CA008091CF0081FF1BC0A89A21E030E085
:100320003093CD002093CC008091CA009091CB00F7
:100330008536910521F43093CB002093CA0080913B
:10034000CA009091CB0001969093CB008093CA0095
:100350009F918F913F912F910F900FBE0F901F9003
:1003600018951F920F920FB60F9211248F938CE362
:1003700082BF9D9B05C08091CE0084608093CE009B
:100380009B9905C08091CE0081608093CE009999A1
:1003900005C08091CE0082608093CE008F910F9037
:1003A0000FBE0F901F901895991B79E004C0991FFC
:1003B000961708F0961B881F7A95C9F780950895BF
:1003C000AA1BBB1B51E107C0AA1FBB1FA617B7077B
:1003D00010F0A61BB70B881F991F5A95A9F7809597
:0C03E0009095BC01CD010895F894FFCF6A
:1003EC0073746172740A0D0041542B434D47533D95
:1003FC00222B333830353031303235303532220A19
:10040C000D00616C61726D5F41524D4544000A0DE7
:10041C000072657365740A0D00636F756E743A2013
:10042C00002C20007374617475733A200073656E30
:10043C00736F723A20004154442B333830353031CD
:0A044C003032353035323B0A0D0026
:00000001FF
