:1000000012C02CC02BC02AC029C028C027C026C0BF
:10001000B9C02AC123C022C021C020C01FC01EC039
:100020001DC01CC01BC011241FBECFE5D4E0DEBF25
:10003000CDBF10E0A0E6B0E0E4EAF2E002C0059037
:100040000D92A438B107D9F710E0A4E8B0E001C0E0
:100050001D92AA38B107E1F70CD022C1D1CFFC0123
:1000600004C05D9BFECF31968CB980818823C9F78F
:1000700008958F929F92AF92BF92CF92DF92EF92AC
:10008000FF920F931F93CF93DF9310BC83E389B943
:100090001BB888E18AB986E880BD80E197E228EC48
:1000A00030E0F9013197F1F70197D9F780E690E058
:1000B000D6DF20E030E048EC50E00AC0FA0131978A
:1000C000F1F70197D9F72E5F3F4F2639310519F027
:1000D00080E197E2F3CF61E0E62EF12C51E1852E2D
:1000E0004EE2942E30E8A32E24E0B22E00E216E871
:1000F00095E0C92E8CE3D82EC8ECD0E01092880091
:1001000010928900F0928500E0928400109287009E
:1001100010928600F89484BA95BAA1BA12BABEBCFD
:1001200089B7846089BF1DBD0CBDC3BE89B781601E
:1001300089BFD2BE88E690E092DF789480918600F5
:1001400090918700019719F480E790E088DF20E024
:1001500030E00AC0FE013197F1F70197D9F72E5F21
:100160003F4F2431310519F080E197E2F3CF8091C0
:10017000840090918500CD9708F3809188008823B2
:10018000E9F6BCCF1F920F920FB60F9211242F9356
:100190003F938F939F9380E296E89DBD8CBD8091A5
:1001A000880080FF0AC0809188008E7F809388003D
:1001B000809189008460809389008091880081FF0C
:1001C0000AC0809188008D7F80938800809189008B
:1001D0008260809389008091890082FF1CC0A89A68
:1001E000AC9A21E030E03093870020938600809124
:1001F0008400909185008536910521F43093850027
:1002000020938400809184009091850001969093C2
:100210008500809384008091890081FF1CC0A89A8A
:10022000AC9A21E030E030938700209386008091E3
:100230008400909185008536910521F430938500E6
:100240002093840080918400909185000196909382
:100250008500809384009F918F913F912F910F9003
:100260000FBE0F901F9018951F920F920FB60F920E
:1002700011248F938CE382BF9B9905C080918800E5
:10028000816080938800999905C080918800826080
:10029000809388008F910F900FBE0F901F9018953C
:0402A000F894FFCF00
:1002A40073746172740A0D0061726D65640A0D00E5
:1002B4004154442B333830363739373535393438AF
:0402C4003B0A0D00E4
:00000001FF
