:1000000012C024C023C022C021C020C01FC01EC0F7
:100010001DC043C01BC01AC019C018C017C016C0ED
:1000200015C014C013C011241FBECFE5D4E0DEBF3D
:10003000CDBF10E0A0E6B0E0ECE1F1E002C0059039
:100040000D92A437B107D9F70CD066C0D9CFFC0107
:1000500004C05D9BFECF31968CB980818823C9F79F
:10006000089591E094BB8EE285BB80E881BB12BA13
:1000700010BC83E389B91BB888E18AB986E880BDE2
:1000800013BE13BE84E682BF98BF89B7816089BF63
:1000900083B7856083BF7894FFCF1F920F920FB60E
:1000A0000F9211242F933F934F935F936F937F93FE
:1000B0008F939F93AF93BF93EF93FF9384E682BF99
:1000C00099990AC08CED95E028EC30E0F901319760
:1000D000F1F70197D9F70BC09B9B0DC08CED95E014
:1000E00028EC30E0F9013197F1F70197D9F7A89A98
:1000F00080E690E0ACDFFF91EF91BF91AF919F91CF
:100100008F917F916F915F914F913F912F910F90C0
:0C0110000FBE0F901F901895F894FFCFC1
:10011C004154442B33383035303130323530353270
:04012C003B0D0A007D
:00000001FF
