:1000000012C02CC02BC02AC029C028C027C026C0BF
:1000100063C0CDC023C022C021C020C01FC01EC0ED
:100020001DC01CC01BC011241FBECFE5D4E0DEBF25
:10003000CDBF10E0A0E6B0E0E8EFF1E002C005902F
:100040000D92AC3BB107D9F710E0ACEBB0E001C0CA
:100050001D92AE3BB107E1F70CD0CCC0D1CFFC0173
:1000600004C05D9BFECF31968CB980818823C9F78F
:10007000089581E184BB8EE285BB80E881BB12BA22
:1000800010BC83E389B91BB888E18AB986E880BDD2
:1000900080E197E228EC30E0F9013197F1F7019720
:1000A000D9F780E690E0DBDF8EE690E0D8DF84E8E9
:1000B00090E0D5DF84E08EBD89B7846089BF80E29F
:1000C00096E89DBD8CBD85E083BF89B7816089BFFF
:1000D0008CE382BF7894FFCF1F920F920FB60F92DE
:1000E00011242F933F934F935F936F937F938F933D
:1000F0009F93AF93BF93EF93FF9380E296E89DBDEC
:100100008CBD8091BC0082FF0DC08091BC008B7FB4
:100110008093BC008091BD0088608093BD0089E918
:1001200090E09DDF8091BC0080FF0DC08091BC00FD
:100130008E7F8093BC008091BD0084608093BD0061
:1001400082EA90E08CDF8091BC0081FF0DC080913D
:10015000BC008D7F8093BC008091BD008260809345
:10016000BD008BEA90E07BDF8091BD0083FF06C07D
:1001700083EB90E074DF1092BD00A8988091BD00E1
:1001800082FDA89A8091BD0081FDA89AFF91EF9110
:10019000BF91AF919F918F917F916F915F914F919F
:1001A0003F912F910F900FBE0F901F9018951F92A7
:1001B0000F920FB60F9211248F938CE382BF9D9BF9
:1001C00005C08091BC0084608093BC009B9905C0F1
:1001D0008091BC0081608093BC00999905C080919A
:1001E000BC0082608093BC008F910F900FBE0F9077
:0801F0001F901895F894FFCF51
:1001F800736563726574202D206F6B0A0D0077613B
:10020800726E696E675F686572636F6E202D206F0E
:100218006B0A0D007761726E696E675F766962724C
:100228006F202D206F6B0A0D007365637265740A69
:100238000D00686572636F6E0A0D00766962726FF1
:0C0248000A0D005345435245540A0D00B6
:00000001FF
