:1000000012C02CC02BC02AC029C028C027C026C0BF
:10001000D5C03BC123C022C021C020C01FC01EC00C
:100020001DC01CC01BC011241FBECFE5D4E0DEBF25
:10003000CDBF10E0A0E6B0E0E4E1F3E002C005903F
:100040000D92AE3AB107D9F710E0AEEAB0E001C0C8
:100050001D92A03BB107E1F738D05AC1D1CFFC01C6
:1000600004C05D9BFECF31968CB980818823C9F78F
:10007000089560E177E238D1382F492F64E670E0C7
:1000800033D1262F5D9BFECF822F6AE021D1805D88
:100090008CB95D9BFECF822F6AE01AD1905D9CB92E
:1000A000832F942F64E670E01FD1282F5D9BFECF35
:1000B000822F6AE00DD1805D8CB95D9BFECF822FCF
:1000C0006AE006D1905D9CB908956F927F928F92FD
:1000D0009F92AF92BF92CF92DF92EF92FF920F93D7
:1000E0001F93CF93DF93F1E16F2EEEE27E2E70E847
:1000F000872E63E3962E58E1A52E46E8B42EC8EC71
:10010000D0E034E0C32E00E216E825E0D22E9CE3D6
:10011000E92E8AE1F82E1092AE001092AF00F8940A
:1001200064BA75BA81BA12BA10BC99B81BB8AAB829
:10013000B0BC80E197E2FE013197F1F70197D9F762
:1001400080E690E08CDFCEBC89B7846089BF1DBD9E
:100150000CBDD3BE89B7816089BFE2BE20E030E02C
:100160000AC0FE013197F1F70197D9F72E5F3F4F93
:100170002A30310519F080E197E2F3CF88E690E06C
:100180006EDF82E890E06BDF5D9BFECFFCB88EE80F
:1001900090E065DF78948091AE0082FFFCCF81E92A
:1001A00090E05DDF8091AE0090E063DF8091AF0072
:1001B00090E05FDF8EE890E052DFADCF1F920F92AC
:1001C0000FB60F9211242F933F934F935F936F932A
:1001D0007F938F939F93AF93BF93EF93FF9380E2AF
:1001E00096E89DBD8CBD8091AE0082FF0AC08091D3
:1001F000AE008B7F8093AE008091AF0088608093CB
:10020000AF008091AE0080FF0AC08091AE008E7F6B
:100210008093AE008091AF0084608093AF008091A6
:10022000AE0081FF0AC08091AE008D7F8093AE004A
:100230008091AF0082608093AF008091AF0083FF18
:1002400003C01092AF00A8988091AF0082FF04C055
:10025000A89A89E990E003DF8091AF0081FF04C094
:10026000A89A89E990E0FBDEFF91EF91BF91AF91F1
:100270009F918F917F916F915F914F913F912F91BE
:100280000F900FBE0F901F9018951F920F920FB6F0
:100290000F9211248F938CE382BF9D9B05C08091A8
:1002A000AE0084608093AE009B9905C08091AE0043
:1002B00081608093AE00999905C08091AE00826004
:1002C0008093AE008F910F900FBE0F901F901895E6
:1002D000991B79E004C0991F961708F0961B881F98
:1002E0007A95C9F780950895AA1BBB1B51E107C0F9
:1002F000AA1FBB1FA617B70710F0A61BB70B881FB6
:10030000991F5A95A9F780959095BC01CD01089544
:04031000F894FFCF8F
:1003140073746172740A0D0041542B434D47533D6D
:10032400222B333830353031303235303532220AF1
:100334000D00616C61726D5F41524D4544000A0DC0
:100344000072657365740A0D004154442B333830D0
:0E0354003530313032353035323B0A0D000085
:00000001FF
